{
  "address": "0x1E47803F287BE73C1BEB3C92E72C214653C2Ff37",
  "abi": [
    {
      "inputs": [
        {
          "internalType": "address",
          "name": "vrfCoordinatorV2",
          "type": "address"
        },
        {
          "internalType": "uint64",
          "name": "subscriptionId",
          "type": "uint64"
        },
        {
          "internalType": "bytes32",
          "name": "gasLane",
          "type": "bytes32"
        },
        {
          "internalType": "uint32",
          "name": "callbackGasLimit",
          "type": "uint32"
        },
        {
          "internalType": "string[3]",
          "name": "dogTokenUris",
          "type": "string[3]"
        },
        {
          "internalType": "uint256",
          "name": "mintFee",
          "type": "uint256"
        }
      ],
      "stateMutability": "nonpayable",
      "type": "constructor"
    },
    {
      "inputs": [
        {
          "internalType": "address",
          "name": "have",
          "type": "address"
        },
        {
          "internalType": "address",
          "name": "want",
          "type": "address"
        }
      ],
      "name": "OnlyCoordinatorCanFulfill",
      "type": "error"
    },
    {
      "inputs": [],
      "name": "RandomIpfsNft__NeedMoreEthSent",
      "type": "error"
    },
    {
      "inputs": [],
      "name": "RandomIpfsNft__RangeOutOfBounds",
      "type": "error"
    },
    {
      "inputs": [],
      "name": "RandomIpfsNft__TransferFailed",
      "type": "error"
    },
    {
      "anonymous": false,
      "inputs": [
        {
          "indexed": true,
          "internalType": "address",
          "name": "owner",
          "type": "address"
        },
        {
          "indexed": true,
          "internalType": "address",
          "name": "approved",
          "type": "address"
        },
        {
          "indexed": true,
          "internalType": "uint256",
          "name": "tokenId",
          "type": "uint256"
        }
      ],
      "name": "Approval",
      "type": "event"
    },
    {
      "anonymous": false,
      "inputs": [
        {
          "indexed": true,
          "internalType": "address",
          "name": "owner",
          "type": "address"
        },
        {
          "indexed": true,
          "internalType": "address",
          "name": "operator",
          "type": "address"
        },
        {
          "indexed": false,
          "internalType": "bool",
          "name": "approved",
          "type": "bool"
        }
      ],
      "name": "ApprovalForAll",
      "type": "event"
    },
    {
      "anonymous": false,
      "inputs": [
        {
          "indexed": false,
          "internalType": "enum RandomIpfsNft.Breed",
          "name": "dogBreed",
          "type": "uint8"
        },
        {
          "indexed": false,
          "internalType": "address",
          "name": "minter",
          "type": "address"
        }
      ],
      "name": "NftMinted",
      "type": "event"
    },
    {
      "anonymous": false,
      "inputs": [
        {
          "indexed": true,
          "internalType": "uint256",
          "name": "requestId",
          "type": "uint256"
        },
        {
          "indexed": false,
          "internalType": "address",
          "name": "requester",
          "type": "address"
        }
      ],
      "name": "NftRequested",
      "type": "event"
    },
    {
      "anonymous": false,
      "inputs": [
        {
          "indexed": true,
          "internalType": "address",
          "name": "previousOwner",
          "type": "address"
        },
        {
          "indexed": true,
          "internalType": "address",
          "name": "newOwner",
          "type": "address"
        }
      ],
      "name": "OwnershipTransferred",
      "type": "event"
    },
    {
      "anonymous": false,
      "inputs": [
        {
          "indexed": true,
          "internalType": "address",
          "name": "from",
          "type": "address"
        },
        {
          "indexed": true,
          "internalType": "address",
          "name": "to",
          "type": "address"
        },
        {
          "indexed": true,
          "internalType": "uint256",
          "name": "tokenId",
          "type": "uint256"
        }
      ],
      "name": "Transfer",
      "type": "event"
    },
    {
      "inputs": [
        {
          "internalType": "address",
          "name": "to",
          "type": "address"
        },
        {
          "internalType": "uint256",
          "name": "tokenId",
          "type": "uint256"
        }
      ],
      "name": "approve",
      "outputs": [],
      "stateMutability": "nonpayable",
      "type": "function"
    },
    {
      "inputs": [
        {
          "internalType": "address",
          "name": "owner",
          "type": "address"
        }
      ],
      "name": "balanceOf",
      "outputs": [
        {
          "internalType": "uint256",
          "name": "",
          "type": "uint256"
        }
      ],
      "stateMutability": "view",
      "type": "function"
    },
    {
      "inputs": [
        {
          "internalType": "uint256",
          "name": "tokenId",
          "type": "uint256"
        }
      ],
      "name": "getApproved",
      "outputs": [
        {
          "internalType": "address",
          "name": "",
          "type": "address"
        }
      ],
      "stateMutability": "view",
      "type": "function"
    },
    {
      "inputs": [
        {
          "internalType": "uint256",
          "name": "moddedRng",
          "type": "uint256"
        }
      ],
      "name": "getBreedFromModdedRng",
      "outputs": [
        {
          "internalType": "enum RandomIpfsNft.Breed",
          "name": "",
          "type": "uint8"
        }
      ],
      "stateMutability": "pure",
      "type": "function"
    },
    {
      "inputs": [],
      "name": "getChanceArray",
      "outputs": [
        {
          "internalType": "uint256[3]",
          "name": "",
          "type": "uint256[3]"
        }
      ],
      "stateMutability": "pure",
      "type": "function"
    },
    {
      "inputs": [
        {
          "internalType": "uint256",
          "name": "index",
          "type": "uint256"
        }
      ],
      "name": "getDogTokenUris",
      "outputs": [
        {
          "internalType": "string",
          "name": "",
          "type": "string"
        }
      ],
      "stateMutability": "view",
      "type": "function"
    },
    {
      "inputs": [],
      "name": "getMintFee",
      "outputs": [
        {
          "internalType": "uint256",
          "name": "",
          "type": "uint256"
        }
      ],
      "stateMutability": "view",
      "type": "function"
    },
    {
      "inputs": [],
      "name": "getTokenCounter",
      "outputs": [
        {
          "internalType": "uint256",
          "name": "",
          "type": "uint256"
        }
      ],
      "stateMutability": "view",
      "type": "function"
    },
    {
      "inputs": [
        {
          "internalType": "address",
          "name": "owner",
          "type": "address"
        },
        {
          "internalType": "address",
          "name": "operator",
          "type": "address"
        }
      ],
      "name": "isApprovedForAll",
      "outputs": [
        {
          "internalType": "bool",
          "name": "",
          "type": "bool"
        }
      ],
      "stateMutability": "view",
      "type": "function"
    },
    {
      "inputs": [],
      "name": "name",
      "outputs": [
        {
          "internalType": "string",
          "name": "",
          "type": "string"
        }
      ],
      "stateMutability": "view",
      "type": "function"
    },
    {
      "inputs": [],
      "name": "owner",
      "outputs": [
        {
          "internalType": "address",
          "name": "",
          "type": "address"
        }
      ],
      "stateMutability": "view",
      "type": "function"
    },
    {
      "inputs": [
        {
          "internalType": "uint256",
          "name": "tokenId",
          "type": "uint256"
        }
      ],
      "name": "ownerOf",
      "outputs": [
        {
          "internalType": "address",
          "name": "",
          "type": "address"
        }
      ],
      "stateMutability": "view",
      "type": "function"
    },
    {
      "inputs": [
        {
          "internalType": "uint256",
          "name": "requestId",
          "type": "uint256"
        },
        {
          "internalType": "uint256[]",
          "name": "randomWords",
          "type": "uint256[]"
        }
      ],
      "name": "rawFulfillRandomWords",
      "outputs": [],
      "stateMutability": "nonpayable",
      "type": "function"
    },
    {
      "inputs": [],
      "name": "renounceOwnership",
      "outputs": [],
      "stateMutability": "nonpayable",
      "type": "function"
    },
    {
      "inputs": [],
      "name": "requestNft",
      "outputs": [
        {
          "internalType": "uint256",
          "name": "requestId",
          "type": "uint256"
        }
      ],
      "stateMutability": "payable",
      "type": "function"
    },
    {
      "inputs": [
        {
          "internalType": "address",
          "name": "from",
          "type": "address"
        },
        {
          "internalType": "address",
          "name": "to",
          "type": "address"
        },
        {
          "internalType": "uint256",
          "name": "tokenId",
          "type": "uint256"
        }
      ],
      "name": "safeTransferFrom",
      "outputs": [],
      "stateMutability": "nonpayable",
      "type": "function"
    },
    {
      "inputs": [
        {
          "internalType": "address",
          "name": "from",
          "type": "address"
        },
        {
          "internalType": "address",
          "name": "to",
          "type": "address"
        },
        {
          "internalType": "uint256",
          "name": "tokenId",
          "type": "uint256"
        },
        {
          "internalType": "bytes",
          "name": "data",
          "type": "bytes"
        }
      ],
      "name": "safeTransferFrom",
      "outputs": [],
      "stateMutability": "nonpayable",
      "type": "function"
    },
    {
      "inputs": [
        {
          "internalType": "address",
          "name": "operator",
          "type": "address"
        },
        {
          "internalType": "bool",
          "name": "approved",
          "type": "bool"
        }
      ],
      "name": "setApprovalForAll",
      "outputs": [],
      "stateMutability": "nonpayable",
      "type": "function"
    },
    {
      "inputs": [
        {
          "internalType": "bytes4",
          "name": "interfaceId",
          "type": "bytes4"
        }
      ],
      "name": "supportsInterface",
      "outputs": [
        {
          "internalType": "bool",
          "name": "",
          "type": "bool"
        }
      ],
      "stateMutability": "view",
      "type": "function"
    },
    {
      "inputs": [],
      "name": "symbol",
      "outputs": [
        {
          "internalType": "string",
          "name": "",
          "type": "string"
        }
      ],
      "stateMutability": "view",
      "type": "function"
    },
    {
      "inputs": [
        {
          "internalType": "uint256",
          "name": "tokenId",
          "type": "uint256"
        }
      ],
      "name": "tokenURI",
      "outputs": [
        {
          "internalType": "string",
          "name": "",
          "type": "string"
        }
      ],
      "stateMutability": "view",
      "type": "function"
    },
    {
      "inputs": [
        {
          "internalType": "address",
          "name": "from",
          "type": "address"
        },
        {
          "internalType": "address",
          "name": "to",
          "type": "address"
        },
        {
          "internalType": "uint256",
          "name": "tokenId",
          "type": "uint256"
        }
      ],
      "name": "transferFrom",
      "outputs": [],
      "stateMutability": "nonpayable",
      "type": "function"
    },
    {
      "inputs": [
        {
          "internalType": "address",
          "name": "newOwner",
          "type": "address"
        }
      ],
      "name": "transferOwnership",
      "outputs": [],
      "stateMutability": "nonpayable",
      "type": "function"
    },
    {
      "inputs": [],
      "name": "withdraw",
      "outputs": [],
      "stateMutability": "nonpayable",
      "type": "function"
    }
  ],
  "transactionHash": "0x491415ad061bd33025c6993fdb5e4a8d6fdf2f79ae7214bbcde963a5be402e36",
  "args": [
    "0x6168499c0cFfCaCD319c818142124B7A15E857ab",
    "9146",
    "0xd89b2bf150e3b9e13446986e571fb9cab24b13cea0a43ea20a6049a85cc807cc",
    "500000",
    [
      "ipfs://QmXbF79VpipbX5UayPTemtJ3488Vi38Zdjxn3r2u1TudAK",
      "ipfs://Qma5g3X1G6n2kFhRUy8oDmZ9VytTWKukqEWCe4ugJAKssk",
      "ipfs://QmYnKwSYVgQeiJjbqGormHyd2Tgkxeq6NEafzUhJ3sXEZW"
    ],
    "10000000000000000"
  ],
  "numDeployments": 1,
  "solcInputHash": "aff68cff38a1db5552392eab086269da",
  "bytecode": "0x6101206040523480156200001257600080fd5b50604051620041da380380620041da8339818101604052810190620000389190620007fd565b6040518060400160405280600f81526020017f52616e646f6d2049504653204e465400000000000000000000000000000000008152506040518060400160405280600381526020017f52494e0000000000000000000000000000000000000000000000000000000000815250878073ffffffffffffffffffffffffffffffffffffffff1660808173ffffffffffffffffffffffffffffffffffffffff1681525050508160009080519060200190620000f292919062000290565b5080600190805190602001906200010b92919062000290565b5050506200012e62000122620001c260201b60201c565b620001ca60201b60201c565b8573ffffffffffffffffffffffffffffffffffffffff1660a08173ffffffffffffffffffffffffffffffffffffffff16815250508467ffffffffffffffff1660c08167ffffffffffffffff16815250508360e081815250508263ffffffff166101008163ffffffff168152505081600a906003620001ae92919062000321565b5080600b819055505050505050506200091d565b600033905090565b6000600760009054906101000a900473ffffffffffffffffffffffffffffffffffffffff16905081600760006101000a81548173ffffffffffffffffffffffffffffffffffffffff021916908373ffffffffffffffffffffffffffffffffffffffff1602179055508173ffffffffffffffffffffffffffffffffffffffff168173ffffffffffffffffffffffffffffffffffffffff167f8be0079c531659141344cd1fd0a4f28419497f9722a3daafe3b4186f6b6457e060405160405180910390a35050565b8280546200029e90620008e7565b90600052602060002090601f016020900481019282620002c257600085556200030e565b82601f10620002dd57805160ff19168380011785556200030e565b828001600101855582156200030e579182015b828111156200030d578251825591602001919060010190620002f0565b5b5090506200031d919062000388565b5090565b82805482825590600052602060002090810192821562000375579160200282015b82811115620003745782518290805190602001906200036392919062000290565b509160200191906001019062000342565b5b509050620003849190620003a7565b5090565b5b80821115620003a357600081600090555060010162000389565b5090565b5b80821115620003cb5760008181620003c19190620003cf565b50600101620003a8565b5090565b508054620003dd90620008e7565b6000825580601f10620003f1575062000412565b601f01602090049060005260206000209081019062000411919062000388565b5b50565b6000604051905090565b600080fd5b600080fd5b600073ffffffffffffffffffffffffffffffffffffffff82169050919050565b6000620004568262000429565b9050919050565b620004688162000449565b81146200047457600080fd5b50565b60008151905062000488816200045d565b92915050565b600067ffffffffffffffff82169050919050565b620004ad816200048e565b8114620004b957600080fd5b50565b600081519050620004cd81620004a2565b92915050565b6000819050919050565b620004e881620004d3565b8114620004f457600080fd5b50565b6000815190506200050881620004dd565b92915050565b600063ffffffff82169050919050565b62000529816200050e565b81146200053557600080fd5b50565b60008151905062000549816200051e565b92915050565b600080fd5b6000601f19601f8301169050919050565b7f4e487b7100000000000000000000000000000000000000000000000000000000600052604160045260246000fd5b6200059f8262000554565b810181811067ffffffffffffffff82111715620005c157620005c062000565565b5b80604052505050565b6000620005d662000415565b9050620005e4828262000594565b919050565b600067ffffffffffffffff82111562000607576200060662000565565b5b602082029050919050565b600080fd5b600080fd5b600067ffffffffffffffff8211156200063a576200063962000565565b5b620006458262000554565b9050602081019050919050565b60005b838110156200067257808201518184015260208101905062000655565b8381111562000682576000848401525b50505050565b60006200069f62000699846200061c565b620005ca565b905082815260208101848484011115620006be57620006bd62000617565b5b620006cb84828562000652565b509392505050565b600082601f830112620006eb57620006ea6200054f565b5b8151620006fd84826020860162000688565b91505092915050565b60006200071d6200071784620005e9565b620005ca565b905080602084028301858111156200073a576200073962000612565b5b835b818110156200078857805167ffffffffffffffff8111156200076357620007626200054f565b5b808601620007728982620006d3565b855260208501945050506020810190506200073c565b5050509392505050565b600082601f830112620007aa57620007a96200054f565b5b6003620007b984828562000706565b91505092915050565b6000819050919050565b620007d781620007c2565b8114620007e357600080fd5b50565b600081519050620007f781620007cc565b92915050565b60008060008060008060c087890312156200081d576200081c6200041f565b5b60006200082d89828a0162000477565b96505060206200084089828a01620004bc565b95505060406200085389828a01620004f7565b94505060606200086689828a0162000538565b935050608087015167ffffffffffffffff8111156200088a576200088962000424565b5b6200089889828a0162000792565b92505060a0620008ab89828a01620007e6565b9150509295509295509295565b7f4e487b7100000000000000000000000000000000000000000000000000000000600052602260045260246000fd5b600060028204905060018216806200090057607f821691505b60208210811415620009175762000916620008b8565b5b50919050565b60805160a05160c05160e05161010051613871620009696000396000610f4c01526000610f0801526000610f2901526000610ecc01526000818161087901526108cd01526138716000f3fe60806040526004361061014b5760003560e01c806370a08231116100b6578063a51cccf31161006f578063a51cccf31461047e578063aa152491146104bb578063b88d4fde146104d9578063c87b56dd14610502578063e985e9c51461053f578063f2fde38b1461057c5761014b565b806370a0823114610380578063715018a6146103bd5780637a5caab3146103d45780638da5cb5b146103ff57806395d89b411461042a578063a22cb465146104555761014b565b80633af25975116101085780633af25975146102705780633ccfd60b146102ad57806342842e0e146102c45780635dacf5f4146102ed5780636352211e146103185780636e02007d146103555761014b565b806301ffc9a71461015057806306fdde031461018d578063081812fc146101b8578063095ea7b3146101f55780631fe543e31461021e57806323b872dd14610247575b600080fd5b34801561015c57600080fd5b506101776004803603810190610172919061241f565b6105a5565b6040516101849190612467565b60405180910390f35b34801561019957600080fd5b506101a2610687565b6040516101af919061251b565b60405180910390f35b3480156101c457600080fd5b506101df60048036038101906101da9190612573565b610719565b6040516101ec91906125e1565b60405180910390f35b34801561020157600080fd5b5061021c60048036038101906102179190612628565b61075f565b005b34801561022a57600080fd5b50610245600480360381019061024091906127b0565b610877565b005b34801561025357600080fd5b5061026e6004803603810190610269919061280c565b610937565b005b34801561027c57600080fd5b5061029760048036038101906102929190612573565b610997565b6040516102a4919061251b565b60405180910390f35b3480156102b957600080fd5b506102c2610a47565b005b3480156102d057600080fd5b506102eb60048036038101906102e6919061280c565b610afb565b005b3480156102f957600080fd5b50610302610b1b565b60405161030f919061290a565b60405180910390f35b34801561032457600080fd5b5061033f600480360381019061033a9190612573565b610b46565b60405161034c91906125e1565b60405180910390f35b34801561036157600080fd5b5061036a610bf8565b6040516103779190612934565b60405180910390f35b34801561038c57600080fd5b506103a760048036038101906103a2919061294f565b610c02565b6040516103b49190612934565b60405180910390f35b3480156103c957600080fd5b506103d2610cba565b005b3480156103e057600080fd5b506103e9610cce565b6040516103f69190612934565b60405180910390f35b34801561040b57600080fd5b50610414610cd8565b60405161042191906125e1565b60405180910390f35b34801561043657600080fd5b5061043f610d02565b60405161044c919061251b565b60405180910390f35b34801561046157600080fd5b5061047c600480360381019061047791906129a8565b610d94565b005b34801561048a57600080fd5b506104a560048036038101906104a09190612573565b610daa565b6040516104b29190612a5f565b60405180910390f35b6104c3610e8c565b6040516104d09190612934565b60405180910390f35b3480156104e557600080fd5b5061050060048036038101906104fb9190612b2f565b61106e565b005b34801561050e57600080fd5b5061052960048036038101906105249190612573565b6110d0565b604051610536919061251b565b60405180910390f35b34801561054b57600080fd5b5061056660048036038101906105619190612bb2565b6111e3565b6040516105739190612467565b60405180910390f35b34801561058857600080fd5b506105a3600480360381019061059e919061294f565b611277565b005b60007f80ac58cd000000000000000000000000000000000000000000000000000000007bffffffffffffffffffffffffffffffffffffffffffffffffffffffff1916827bffffffffffffffffffffffffffffffffffffffffffffffffffffffff1916148061067057507f5b5e139f000000000000000000000000000000000000000000000000000000007bffffffffffffffffffffffffffffffffffffffffffffffffffffffff1916827bffffffffffffffffffffffffffffffffffffffffffffffffffffffff1916145b80610680575061067f826112fb565b5b9050919050565b60606000805461069690612c21565b80601f01602080910402602001604051908101604052809291908181526020018280546106c290612c21565b801561070f5780601f106106e45761010080835404028352916020019161070f565b820191906000526020600020905b8154815290600101906020018083116106f257829003601f168201915b5050505050905090565b600061072482611365565b6004600083815260200190815260200160002060009054906101000a900473ffffffffffffffffffffffffffffffffffffffff169050919050565b600061076a82610b46565b90508073ffffffffffffffffffffffffffffffffffffffff168373ffffffffffffffffffffffffffffffffffffffff1614156107db576040517f08c379a00000000000000000000000000000000000000000000000000000000081526004016107d290612cc5565b60405180910390fd5b8073ffffffffffffffffffffffffffffffffffffffff166107fa6113b0565b73ffffffffffffffffffffffffffffffffffffffff1614806108295750610828816108236113b0565b6111e3565b5b610868576040517f08c379a000000000000000000000000000000000000000000000000000000000815260040161085f90612d57565b60405180910390fd5b61087283836113b8565b505050565b7f000000000000000000000000000000000000000000000000000000000000000073ffffffffffffffffffffffffffffffffffffffff163373ffffffffffffffffffffffffffffffffffffffff161461092957337f00000000000000000000000000000000000000000000000000000000000000006040517f1cf993f4000000000000000000000000000000000000000000000000000000008152600401610920929190612d77565b60405180910390fd5b6109338282611471565b5050565b6109486109426113b0565b8261160e565b610987576040517f08c379a000000000000000000000000000000000000000000000000000000000815260040161097e90612e12565b60405180910390fd5b6109928383836116a3565b505050565b6060600a82815481106109ad576109ac612e32565b5b9060005260206000200180546109c290612c21565b80601f01602080910402602001604051908101604052809291908181526020018280546109ee90612c21565b8015610a3b5780601f10610a1057610100808354040283529160200191610a3b565b820191906000526020600020905b815481529060010190602001808311610a1e57829003601f168201915b50505050509050919050565b610a4f61190a565b600047905060003373ffffffffffffffffffffffffffffffffffffffff1682604051610a7a90612e92565b60006040518083038185875af1925050503d8060008114610ab7576040519150601f19603f3d011682016040523d82523d6000602084013e610abc565b606091505b5050905080610af7576040517fca7e25b700000000000000000000000000000000000000000000000000000000815260040160405180910390fd5b5050565b610b168383836040518060200160405280600081525061106e565b505050565b610b236122ee565b6040518060600160405280600a8152602001601e81526020016064815250905090565b6000806002600084815260200190815260200160002060009054906101000a900473ffffffffffffffffffffffffffffffffffffffff169050600073ffffffffffffffffffffffffffffffffffffffff168173ffffffffffffffffffffffffffffffffffffffff161415610bef576040517f08c379a0000000000000000000000000000000000000000000000000000000008152600401610be690612ef3565b60405180910390fd5b80915050919050565b6000600954905090565b60008073ffffffffffffffffffffffffffffffffffffffff168273ffffffffffffffffffffffffffffffffffffffff161415610c73576040517f08c379a0000000000000000000000000000000000000000000000000000000008152600401610c6a90612f85565b60405180910390fd5b600360008373ffffffffffffffffffffffffffffffffffffffff1673ffffffffffffffffffffffffffffffffffffffff168152602001908152602001600020549050919050565b610cc261190a565b610ccc6000611988565b565b6000600b54905090565b6000600760009054906101000a900473ffffffffffffffffffffffffffffffffffffffff16905090565b606060018054610d1190612c21565b80601f0160208091040260200160405190810160405280929190818152602001828054610d3d90612c21565b8015610d8a5780601f10610d5f57610100808354040283529160200191610d8a565b820191906000526020600020905b815481529060010190602001808311610d6d57829003601f168201915b5050505050905090565b610da6610d9f6113b0565b8383611a4e565b5050565b600080600090506000610dbb610b1b565b905060005b6003811015610e5457828510158015610dfa5750818160038110610de757610de6612e32565b5b602002015183610df79190612fd4565b85105b15610e1c57806002811115610e1257610e116129e8565b5b9350505050610e87565b818160038110610e2f57610e2e612e32565b5b602002015183610e3f9190612fd4565b92508080610e4c9061302a565b915050610dc0565b506040517f12806c9d00000000000000000000000000000000000000000000000000000000815260040160405180910390fd5b919050565b6000600b54341015610eca576040517ff64fbfee00000000000000000000000000000000000000000000000000000000815260040160405180910390fd5b7f000000000000000000000000000000000000000000000000000000000000000073ffffffffffffffffffffffffffffffffffffffff16635d3b1d307f00000000000000000000000000000000000000000000000000000000000000007f000000000000000000000000000000000000000000000000000000000000000060037f000000000000000000000000000000000000000000000000000000000000000060016040518663ffffffff1660e01b8152600401610f8d9594939291906130eb565b602060405180830381600087803b158015610fa757600080fd5b505af1158015610fbb573d6000803e3d6000fd5b505050506040513d601f19601f82011682018060405250810190610fdf9190613153565b9050336008600083815260200190815260200160002060006101000a81548173ffffffffffffffffffffffffffffffffffffffff021916908373ffffffffffffffffffffffffffffffffffffffff160217905550807ff873236e6cc0ecc5be1a9a35c95ee5b8d1ac4cc7bfef0cc5060391d6cc98e26b3360405161106391906125e1565b60405180910390a290565b61107f6110796113b0565b8361160e565b6110be576040517f08c379a00000000000000000000000000000000000000000000000000000000081526004016110b590612e12565b60405180910390fd5b6110ca84848484611bbb565b50505050565b60606110db82611365565b60006006600084815260200190815260200160002080546110fb90612c21565b80601f016020809104026020016040519081016040528092919081815260200182805461112790612c21565b80156111745780601f1061114957610100808354040283529160200191611174565b820191906000526020600020905b81548152906001019060200180831161115757829003601f168201915b505050505090506000611185611c17565b905060008151141561119b5781925050506111de565b6000825111156111d05780826040516020016111b89291906131bc565b604051602081830303815290604052925050506111de565b6111d984611c2e565b925050505b919050565b6000600560008473ffffffffffffffffffffffffffffffffffffffff1673ffffffffffffffffffffffffffffffffffffffff16815260200190815260200160002060008373ffffffffffffffffffffffffffffffffffffffff1673ffffffffffffffffffffffffffffffffffffffff16815260200190815260200160002060009054906101000a900460ff16905092915050565b61127f61190a565b600073ffffffffffffffffffffffffffffffffffffffff168173ffffffffffffffffffffffffffffffffffffffff1614156112ef576040517f08c379a00000000000000000000000000000000000000000000000000000000081526004016112e690613252565b60405180910390fd5b6112f881611988565b50565b60007f01ffc9a7000000000000000000000000000000000000000000000000000000007bffffffffffffffffffffffffffffffffffffffffffffffffffffffff1916827bffffffffffffffffffffffffffffffffffffffffffffffffffffffff1916149050919050565b61136e81611c96565b6113ad576040517f08c379a00000000000000000000000000000000000000000000000000000000081526004016113a490612ef3565b60405180910390fd5b50565b600033905090565b816004600083815260200190815260200160002060006101000a81548173ffffffffffffffffffffffffffffffffffffffff021916908373ffffffffffffffffffffffffffffffffffffffff160217905550808273ffffffffffffffffffffffffffffffffffffffff1661142b83610b46565b73ffffffffffffffffffffffffffffffffffffffff167f8c5be1e5ebec7d5bd14f71427d1e84f3dd0314c0f7b2291e5b200ac8c7c3b92560405160405180910390a45050565b60006008600084815260200190815260200160002060009054906101000a900473ffffffffffffffffffffffffffffffffffffffff1690506000600954905060006064846000815181106114c8576114c7612e32565b5b60200260200101516114da91906132a1565b905060006114e782610daa565b9050600960008154809291906114fc9061302a565b919050555061150b8484611d02565b6115cd83600a836002811115611524576115236129e8565b5b8154811061153557611534612e32565b5b90600052602060002001805461154a90612c21565b80601f016020809104026020016040519081016040528092919081815260200182805461157690612c21565b80156115c35780601f10611598576101008083540402835291602001916115c3565b820191906000526020600020905b8154815290600101906020018083116115a657829003601f168201915b5050505050611d20565b7f8a269f26b688e110e9cbd887d163dab35cae678fa353a0292de532c0cac1ecdc81856040516115fe9291906132d2565b60405180910390a1505050505050565b60008061161a83610b46565b90508073ffffffffffffffffffffffffffffffffffffffff168473ffffffffffffffffffffffffffffffffffffffff16148061165c575061165b81856111e3565b5b8061169a57508373ffffffffffffffffffffffffffffffffffffffff1661168284610719565b73ffffffffffffffffffffffffffffffffffffffff16145b91505092915050565b8273ffffffffffffffffffffffffffffffffffffffff166116c382610b46565b73ffffffffffffffffffffffffffffffffffffffff1614611719576040517f08c379a00000000000000000000000000000000000000000000000000000000081526004016117109061336d565b60405180910390fd5b600073ffffffffffffffffffffffffffffffffffffffff168273ffffffffffffffffffffffffffffffffffffffff161415611789576040517f08c379a0000000000000000000000000000000000000000000000000000000008152600401611780906133ff565b60405180910390fd5b611794838383611d94565b61179f6000826113b8565b6001600360008573ffffffffffffffffffffffffffffffffffffffff1673ffffffffffffffffffffffffffffffffffffffff16815260200190815260200160002060008282546117ef919061341f565b925050819055506001600360008473ffffffffffffffffffffffffffffffffffffffff1673ffffffffffffffffffffffffffffffffffffffff16815260200190815260200160002060008282546118469190612fd4565b92505081905550816002600083815260200190815260200160002060006101000a81548173ffffffffffffffffffffffffffffffffffffffff021916908373ffffffffffffffffffffffffffffffffffffffff160217905550808273ffffffffffffffffffffffffffffffffffffffff168473ffffffffffffffffffffffffffffffffffffffff167fddf252ad1be2c89b69c2b068fc378daa952ba7f163c4a11628f55a4df523b3ef60405160405180910390a4611905838383611d99565b505050565b6119126113b0565b73ffffffffffffffffffffffffffffffffffffffff16611930610cd8565b73ffffffffffffffffffffffffffffffffffffffff1614611986576040517f08c379a000000000000000000000000000000000000000000000000000000000815260040161197d9061349f565b60405180910390fd5b565b6000600760009054906101000a900473ffffffffffffffffffffffffffffffffffffffff16905081600760006101000a81548173ffffffffffffffffffffffffffffffffffffffff021916908373ffffffffffffffffffffffffffffffffffffffff1602179055508173ffffffffffffffffffffffffffffffffffffffff168173ffffffffffffffffffffffffffffffffffffffff167f8be0079c531659141344cd1fd0a4f28419497f9722a3daafe3b4186f6b6457e060405160405180910390a35050565b8173ffffffffffffffffffffffffffffffffffffffff168373ffffffffffffffffffffffffffffffffffffffff161415611abd576040517f08c379a0000000000000000000000000000000000000000000000000000000008152600401611ab49061350b565b60405180910390fd5b80600560008573ffffffffffffffffffffffffffffffffffffffff1673ffffffffffffffffffffffffffffffffffffffff16815260200190815260200160002060008473ffffffffffffffffffffffffffffffffffffffff1673ffffffffffffffffffffffffffffffffffffffff16815260200190815260200160002060006101000a81548160ff0219169083151502179055508173ffffffffffffffffffffffffffffffffffffffff168373ffffffffffffffffffffffffffffffffffffffff167f17307eab39ab6107e8899845ad3d59bd9653f200f220920489ca2b5937696c3183604051611bae9190612467565b60405180910390a3505050565b611bc68484846116a3565b611bd284848484611d9e565b611c11576040517f08c379a0000000000000000000000000000000000000000000000000000000008152600401611c089061359d565b60405180910390fd5b50505050565b606060405180602001604052806000815250905090565b6060611c3982611365565b6000611c43611c17565b90506000815111611c635760405180602001604052806000815250611c8e565b80611c6d84611f35565b604051602001611c7e9291906131bc565b6040516020818303038152906040525b915050919050565b60008073ffffffffffffffffffffffffffffffffffffffff166002600084815260200190815260200160002060009054906101000a900473ffffffffffffffffffffffffffffffffffffffff1673ffffffffffffffffffffffffffffffffffffffff1614159050919050565b611d1c828260405180602001604052806000815250612096565b5050565b611d2982611c96565b611d68576040517f08c379a0000000000000000000000000000000000000000000000000000000008152600401611d5f9061362f565b60405180910390fd5b80600660008481526020019081526020016000209080519060200190611d8f929190612310565b505050565b505050565b505050565b6000611dbf8473ffffffffffffffffffffffffffffffffffffffff166120f1565b15611f28578373ffffffffffffffffffffffffffffffffffffffff1663150b7a02611de86113b0565b8786866040518563ffffffff1660e01b8152600401611e0a94939291906136a4565b602060405180830381600087803b158015611e2457600080fd5b505af1925050508015611e5557506040513d601f19601f82011682018060405250810190611e529190613705565b60015b611ed8573d8060008114611e85576040519150601f19603f3d011682016040523d82523d6000602084013e611e8a565b606091505b50600081511415611ed0576040517f08c379a0000000000000000000000000000000000000000000000000000000008152600401611ec79061359d565b60405180910390fd5b805181602001fd5b63150b7a0260e01b7bffffffffffffffffffffffffffffffffffffffffffffffffffffffff1916817bffffffffffffffffffffffffffffffffffffffffffffffffffffffff191614915050611f2d565b600190505b949350505050565b60606000821415611f7d576040518060400160405280600181526020017f30000000000000000000000000000000000000000000000000000000000000008152509050612091565b600082905060005b60008214611faf578080611f989061302a565b915050600a82611fa89190613732565b9150611f85565b60008167ffffffffffffffff811115611fcb57611fca61266d565b5b6040519080825280601f01601f191660200182016040528015611ffd5781602001600182028036833780820191505090505b5090505b6000851461208a57600182612016919061341f565b9150600a8561202591906132a1565b60306120319190612fd4565b60f81b81838151811061204757612046612e32565b5b60200101907effffffffffffffffffffffffffffffffffffffffffffffffffffffffffffff1916908160001a905350600a856120839190613732565b9450612001565b8093505050505b919050565b6120a08383612114565b6120ad6000848484611d9e565b6120ec576040517f08c379a00000000000000000000000000000000000000000000000000000000081526004016120e39061359d565b60405180910390fd5b505050565b6000808273ffffffffffffffffffffffffffffffffffffffff163b119050919050565b600073ffffffffffffffffffffffffffffffffffffffff168273ffffffffffffffffffffffffffffffffffffffff161415612184576040517f08c379a000000000000000000000000000000000000000000000000000000000815260040161217b906137af565b60405180910390fd5b61218d81611c96565b156121cd576040517f08c379a00000000000000000000000000000000000000000000000000000000081526004016121c49061381b565b60405180910390fd5b6121d960008383611d94565b6001600360008473ffffffffffffffffffffffffffffffffffffffff1673ffffffffffffffffffffffffffffffffffffffff16815260200190815260200160002060008282546122299190612fd4565b92505081905550816002600083815260200190815260200160002060006101000a81548173ffffffffffffffffffffffffffffffffffffffff021916908373ffffffffffffffffffffffffffffffffffffffff160217905550808273ffffffffffffffffffffffffffffffffffffffff16600073ffffffffffffffffffffffffffffffffffffffff167fddf252ad1be2c89b69c2b068fc378daa952ba7f163c4a11628f55a4df523b3ef60405160405180910390a46122ea60008383611d99565b5050565b6040518060600160405280600390602082028036833780820191505090505090565b82805461231c90612c21565b90600052602060002090601f01602090048101928261233e5760008555612385565b82601f1061235757805160ff1916838001178555612385565b82800160010185558215612385579182015b82811115612384578251825591602001919060010190612369565b5b5090506123929190612396565b5090565b5b808211156123af576000816000905550600101612397565b5090565b6000604051905090565b600080fd5b600080fd5b60007fffffffff0000000000000000000000000000000000000000000000000000000082169050919050565b6123fc816123c7565b811461240757600080fd5b50565b600081359050612419816123f3565b92915050565b600060208284031215612435576124346123bd565b5b60006124438482850161240a565b91505092915050565b60008115159050919050565b6124618161244c565b82525050565b600060208201905061247c6000830184612458565b92915050565b600081519050919050565b600082825260208201905092915050565b60005b838110156124bc5780820151818401526020810190506124a1565b838111156124cb576000848401525b50505050565b6000601f19601f8301169050919050565b60006124ed82612482565b6124f7818561248d565b935061250781856020860161249e565b612510816124d1565b840191505092915050565b6000602082019050818103600083015261253581846124e2565b905092915050565b6000819050919050565b6125508161253d565b811461255b57600080fd5b50565b60008135905061256d81612547565b92915050565b600060208284031215612589576125886123bd565b5b60006125978482850161255e565b91505092915050565b600073ffffffffffffffffffffffffffffffffffffffff82169050919050565b60006125cb826125a0565b9050919050565b6125db816125c0565b82525050565b60006020820190506125f660008301846125d2565b92915050565b612605816125c0565b811461261057600080fd5b50565b600081359050612622816125fc565b92915050565b6000806040838503121561263f5761263e6123bd565b5b600061264d85828601612613565b925050602061265e8582860161255e565b9150509250929050565b600080fd5b7f4e487b7100000000000000000000000000000000000000000000000000000000600052604160045260246000fd5b6126a5826124d1565b810181811067ffffffffffffffff821117156126c4576126c361266d565b5b80604052505050565b60006126d76123b3565b90506126e3828261269c565b919050565b600067ffffffffffffffff8211156127035761270261266d565b5b602082029050602081019050919050565b600080fd5b600061272c612727846126e8565b6126cd565b9050808382526020820190506020840283018581111561274f5761274e612714565b5b835b818110156127785780612764888261255e565b845260208401935050602081019050612751565b5050509392505050565b600082601f83011261279757612796612668565b5b81356127a7848260208601612719565b91505092915050565b600080604083850312156127c7576127c66123bd565b5b60006127d58582860161255e565b925050602083013567ffffffffffffffff8111156127f6576127f56123c2565b5b61280285828601612782565b9150509250929050565b600080600060608486031215612825576128246123bd565b5b600061283386828701612613565b935050602061284486828701612613565b92505060406128558682870161255e565b9150509250925092565b600060039050919050565b600081905092915050565b6000819050919050565b6128888161253d565b82525050565b600061289a838361287f565b60208301905092915050565b6000602082019050919050565b6128bc8161285f565b6128c6818461286a565b92506128d182612875565b8060005b838110156129025781516128e9878261288e565b96506128f4836128a6565b9250506001810190506128d5565b505050505050565b600060608201905061291f60008301846128b3565b92915050565b61292e8161253d565b82525050565b60006020820190506129496000830184612925565b92915050565b600060208284031215612965576129646123bd565b5b600061297384828501612613565b91505092915050565b6129858161244c565b811461299057600080fd5b50565b6000813590506129a28161297c565b92915050565b600080604083850312156129bf576129be6123bd565b5b60006129cd85828601612613565b92505060206129de85828601612993565b9150509250929050565b7f4e487b7100000000000000000000000000000000000000000000000000000000600052602160045260246000fd5b60038110612a2857612a276129e8565b5b50565b6000819050612a3982612a17565b919050565b6000612a4982612a2b565b9050919050565b612a5981612a3e565b82525050565b6000602082019050612a746000830184612a50565b92915050565b600080fd5b600067ffffffffffffffff821115612a9a57612a9961266d565b5b612aa3826124d1565b9050602081019050919050565b82818337600083830152505050565b6000612ad2612acd84612a7f565b6126cd565b905082815260208101848484011115612aee57612aed612a7a565b5b612af9848285612ab0565b509392505050565b600082601f830112612b1657612b15612668565b5b8135612b26848260208601612abf565b91505092915050565b60008060008060808587031215612b4957612b486123bd565b5b6000612b5787828801612613565b9450506020612b6887828801612613565b9350506040612b798782880161255e565b925050606085013567ffffffffffffffff811115612b9a57612b996123c2565b5b612ba687828801612b01565b91505092959194509250565b60008060408385031215612bc957612bc86123bd565b5b6000612bd785828601612613565b9250506020612be885828601612613565b9150509250929050565b7f4e487b7100000000000000000000000000000000000000000000000000000000600052602260045260246000fd5b60006002820490506001821680612c3957607f821691505b60208210811415612c4d57612c4c612bf2565b5b50919050565b7f4552433732313a20617070726f76616c20746f2063757272656e74206f776e6560008201527f7200000000000000000000000000000000000000000000000000000000000000602082015250565b6000612caf60218361248d565b9150612cba82612c53565b604082019050919050565b60006020820190508181036000830152612cde81612ca2565b9050919050565b7f4552433732313a20617070726f76652063616c6c6572206973206e6f7420746f60008201527f6b656e206f776e6572206e6f7220617070726f76656420666f7220616c6c0000602082015250565b6000612d41603e8361248d565b9150612d4c82612ce5565b604082019050919050565b60006020820190508181036000830152612d7081612d34565b9050919050565b6000604082019050612d8c60008301856125d2565b612d9960208301846125d2565b9392505050565b7f4552433732313a2063616c6c6572206973206e6f7420746f6b656e206f776e6560008201527f72206e6f7220617070726f766564000000000000000000000000000000000000602082015250565b6000612dfc602e8361248d565b9150612e0782612da0565b604082019050919050565b60006020820190508181036000830152612e2b81612def565b9050919050565b7f4e487b7100000000000000000000000000000000000000000000000000000000600052603260045260246000fd5b600081905092915050565b50565b6000612e7c600083612e61565b9150612e8782612e6c565b600082019050919050565b6000612e9d82612e6f565b9150819050919050565b7f4552433732313a20696e76616c696420746f6b656e2049440000000000000000600082015250565b6000612edd60188361248d565b9150612ee882612ea7565b602082019050919050565b60006020820190508181036000830152612f0c81612ed0565b9050919050565b7f4552433732313a2061646472657373207a65726f206973206e6f74206120766160008201527f6c6964206f776e65720000000000000000000000000000000000000000000000602082015250565b6000612f6f60298361248d565b9150612f7a82612f13565b604082019050919050565b60006020820190508181036000830152612f9e81612f62565b9050919050565b7f4e487b7100000000000000000000000000000000000000000000000000000000600052601160045260246000fd5b6000612fdf8261253d565b9150612fea8361253d565b9250827fffffffffffffffffffffffffffffffffffffffffffffffffffffffffffffffff0382111561301f5761301e612fa5565b5b828201905092915050565b60006130358261253d565b91507fffffffffffffffffffffffffffffffffffffffffffffffffffffffffffffffff82141561306857613067612fa5565b5b600182019050919050565b6000819050919050565b61308681613073565b82525050565b600067ffffffffffffffff82169050919050565b6130a98161308c565b82525050565b600061ffff82169050919050565b6130c6816130af565b82525050565b600063ffffffff82169050919050565b6130e5816130cc565b82525050565b600060a082019050613100600083018861307d565b61310d60208301876130a0565b61311a60408301866130bd565b61312760608301856130dc565b61313460808301846130dc565b9695505050505050565b60008151905061314d81612547565b92915050565b600060208284031215613169576131686123bd565b5b60006131778482850161313e565b91505092915050565b600081905092915050565b600061319682612482565b6131a08185613180565b93506131b081856020860161249e565b80840191505092915050565b60006131c8828561318b565b91506131d4828461318b565b91508190509392505050565b7f4f776e61626c653a206e6577206f776e657220697320746865207a65726f206160008201527f6464726573730000000000000000000000000000000000000000000000000000602082015250565b600061323c60268361248d565b9150613247826131e0565b604082019050919050565b6000602082019050818103600083015261326b8161322f565b9050919050565b7f4e487b7100000000000000000000000000000000000000000000000000000000600052601260045260246000fd5b60006132ac8261253d565b91506132b78361253d565b9250826132c7576132c6613272565b5b828206905092915050565b60006040820190506132e76000830185612a50565b6132f460208301846125d2565b9392505050565b7f4552433732313a207472616e736665722066726f6d20696e636f72726563742060008201527f6f776e6572000000000000000000000000000000000000000000000000000000602082015250565b600061335760258361248d565b9150613362826132fb565b604082019050919050565b600060208201905081810360008301526133868161334a565b9050919050565b7f4552433732313a207472616e7366657220746f20746865207a65726f2061646460008201527f7265737300000000000000000000000000000000000000000000000000000000602082015250565b60006133e960248361248d565b91506133f48261338d565b604082019050919050565b60006020820190508181036000830152613418816133dc565b9050919050565b600061342a8261253d565b91506134358361253d565b92508282101561344857613447612fa5565b5b828203905092915050565b7f4f776e61626c653a2063616c6c6572206973206e6f7420746865206f776e6572600082015250565b600061348960208361248d565b915061349482613453565b602082019050919050565b600060208201905081810360008301526134b88161347c565b9050919050565b7f4552433732313a20617070726f766520746f2063616c6c657200000000000000600082015250565b60006134f560198361248d565b9150613500826134bf565b602082019050919050565b60006020820190508181036000830152613524816134e8565b9050919050565b7f4552433732313a207472616e7366657220746f206e6f6e20455243373231526560008201527f63656976657220696d706c656d656e7465720000000000000000000000000000602082015250565b600061358760328361248d565b91506135928261352b565b604082019050919050565b600060208201905081810360008301526135b68161357a565b9050919050565b7f45524337323155524953746f726167653a2055524920736574206f66206e6f6e60008201527f6578697374656e7420746f6b656e000000000000000000000000000000000000602082015250565b6000613619602e8361248d565b9150613624826135bd565b604082019050919050565b600060208201905081810360008301526136488161360c565b9050919050565b600081519050919050565b600082825260208201905092915050565b60006136768261364f565b613680818561365a565b935061369081856020860161249e565b613699816124d1565b840191505092915050565b60006080820190506136b960008301876125d2565b6136c660208301866125d2565b6136d36040830185612925565b81810360608301526136e5818461366b565b905095945050505050565b6000815190506136ff816123f3565b92915050565b60006020828403121561371b5761371a6123bd565b5b6000613729848285016136f0565b91505092915050565b600061373d8261253d565b91506137488361253d565b92508261375857613757613272565b5b828204905092915050565b7f4552433732313a206d696e7420746f20746865207a65726f2061646472657373600082015250565b600061379960208361248d565b91506137a482613763565b602082019050919050565b600060208201905081810360008301526137c88161378c565b9050919050565b7f4552433732313a20746f6b656e20616c7265616479206d696e74656400000000600082015250565b6000613805601c8361248d565b9150613810826137cf565b602082019050919050565b60006020820190508181036000830152613834816137f8565b905091905056fea26469706673582212200f76301df0d8ec46766f47c5997841bf7d7af1a9b2384bbf8c5ab9baa457aa5464736f6c63430008090033",
  "devdoc": {
    "kind": "dev",
    "methods": {
      "approve(address,uint256)": {
        "details": "See {IERC721-approve}."
      },
      "balanceOf(address)": {
        "details": "See {IERC721-balanceOf}."
      },
      "getApproved(uint256)": {
        "details": "See {IERC721-getApproved}."
      },
      "isApprovedForAll(address,address)": {
        "details": "See {IERC721-isApprovedForAll}."
      },
      "name()": {
        "details": "See {IERC721Metadata-name}."
      },
      "owner()": {
        "details": "Returns the address of the current owner."
      },
      "ownerOf(uint256)": {
        "details": "See {IERC721-ownerOf}."
      },
      "renounceOwnership()": {
        "details": "Leaves the contract without owner. It will not be possible to call `onlyOwner` functions anymore. Can only be called by the current owner. NOTE: Renouncing ownership will leave the contract without an owner, thereby removing any functionality that is only available to the owner."
      },
      "safeTransferFrom(address,address,uint256)": {
        "details": "See {IERC721-safeTransferFrom}."
      },
      "safeTransferFrom(address,address,uint256,bytes)": {
        "details": "See {IERC721-safeTransferFrom}."
      },
      "setApprovalForAll(address,bool)": {
        "details": "See {IERC721-setApprovalForAll}."
      },
      "supportsInterface(bytes4)": {
        "details": "See {IERC165-supportsInterface}."
      },
      "symbol()": {
        "details": "See {IERC721Metadata-symbol}."
      },
      "tokenURI(uint256)": {
        "details": "See {IERC721Metadata-tokenURI}."
      },
      "transferFrom(address,address,uint256)": {
        "details": "See {IERC721-transferFrom}."
      },
      "transferOwnership(address)": {
        "details": "Transfers ownership of the contract to a new account (`newOwner`). Can only be called by the current owner."
      }
    },
    "version": 1
  },
  "userdoc": {
    "kind": "user",
    "methods": {},
    "version": 1
  },
  "storageLayout": {
    "storage": [
      {
        "astId": 1296,
        "contract": "contracts/RandomIpfsNft.sol:RandomIpfsNft",
        "label": "_name",
        "offset": 0,
        "slot": "0",
        "type": "t_string_storage"
      },
      {
        "astId": 1298,
        "contract": "contracts/RandomIpfsNft.sol:RandomIpfsNft",
        "label": "_symbol",
        "offset": 0,
        "slot": "1",
        "type": "t_string_storage"
      },
      {
        "astId": 1302,
        "contract": "contracts/RandomIpfsNft.sol:RandomIpfsNft",
        "label": "_owners",
        "offset": 0,
        "slot": "2",
        "type": "t_mapping(t_uint256,t_address)"
      },
      {
        "astId": 1306,
        "contract": "contracts/RandomIpfsNft.sol:RandomIpfsNft",
        "label": "_balances",
        "offset": 0,
        "slot": "3",
        "type": "t_mapping(t_address,t_uint256)"
      },
      {
        "astId": 1310,
        "contract": "contracts/RandomIpfsNft.sol:RandomIpfsNft",
        "label": "_tokenApprovals",
        "offset": 0,
        "slot": "4",
        "type": "t_mapping(t_uint256,t_address)"
      },
      {
        "astId": 1316,
        "contract": "contracts/RandomIpfsNft.sol:RandomIpfsNft",
        "label": "_operatorApprovals",
        "offset": 0,
        "slot": "5",
        "type": "t_mapping(t_address,t_mapping(t_address,t_bool))"
      },
      {
        "astId": 2284,
        "contract": "contracts/RandomIpfsNft.sol:RandomIpfsNft",
        "label": "_tokenURIs",
        "offset": 0,
        "slot": "6",
        "type": "t_mapping(t_uint256,t_string_storage)"
      },
      {
        "astId": 1165,
        "contract": "contracts/RandomIpfsNft.sol:RandomIpfsNft",
        "label": "_owner",
        "offset": 0,
        "slot": "7",
        "type": "t_address"
      },
      {
        "astId": 3356,
        "contract": "contracts/RandomIpfsNft.sol:RandomIpfsNft",
        "label": "s_requestIdToSender",
        "offset": 0,
        "slot": "8",
        "type": "t_mapping(t_uint256,t_address)"
      },
      {
        "astId": 3358,
        "contract": "contracts/RandomIpfsNft.sol:RandomIpfsNft",
        "label": "s_tokenCounter",
        "offset": 0,
        "slot": "9",
        "type": "t_uint256"
      },
      {
        "astId": 3364,
        "contract": "contracts/RandomIpfsNft.sol:RandomIpfsNft",
        "label": "s_dogTokenUris",
        "offset": 0,
        "slot": "10",
        "type": "t_array(t_string_storage)dyn_storage"
      },
      {
        "astId": 3366,
        "contract": "contracts/RandomIpfsNft.sol:RandomIpfsNft",
        "label": "i_mintFee",
        "offset": 0,
        "slot": "11",
        "type": "t_uint256"
      }
    ],
    "types": {
      "t_address": {
        "encoding": "inplace",
        "label": "address",
        "numberOfBytes": "20"
      },
      "t_array(t_string_storage)dyn_storage": {
        "base": "t_string_storage",
        "encoding": "dynamic_array",
        "label": "string[]",
        "numberOfBytes": "32"
      },
      "t_bool": {
        "encoding": "inplace",
        "label": "bool",
        "numberOfBytes": "1"
      },
      "t_mapping(t_address,t_bool)": {
        "encoding": "mapping",
        "key": "t_address",
        "label": "mapping(address => bool)",
        "numberOfBytes": "32",
        "value": "t_bool"
      },
      "t_mapping(t_address,t_mapping(t_address,t_bool))": {
        "encoding": "mapping",
        "key": "t_address",
        "label": "mapping(address => mapping(address => bool))",
        "numberOfBytes": "32",
        "value": "t_mapping(t_address,t_bool)"
      },
      "t_mapping(t_address,t_uint256)": {
        "encoding": "mapping",
        "key": "t_address",
        "label": "mapping(address => uint256)",
        "numberOfBytes": "32",
        "value": "t_uint256"
      },
      "t_mapping(t_uint256,t_address)": {
        "encoding": "mapping",
        "key": "t_uint256",
        "label": "mapping(uint256 => address)",
        "numberOfBytes": "32",
        "value": "t_address"
      },
      "t_mapping(t_uint256,t_string_storage)": {
        "encoding": "mapping",
        "key": "t_uint256",
        "label": "mapping(uint256 => string)",
        "numberOfBytes": "32",
        "value": "t_string_storage"
      },
      "t_string_storage": {
        "encoding": "bytes",
        "label": "string",
        "numberOfBytes": "32"
      },
      "t_uint256": {
        "encoding": "inplace",
        "label": "uint256",
        "numberOfBytes": "32"
      }
    }
  }
}